S01400004672656552544F53323536302E7372656379
S113000004C1000032C1000030C100002EC1000054
S11300102CC100002AC1000028C1000026C1000034
S113002024C1000022C1000020C100001EC1000044
S11300301CC10000E1C6000018C1000016C1000088
S113004014C100000C94980810C100000EC10000F7
S11300500CC100000AC1000008C100000C94C317C1
S113006004C100000C9425130C942514FEC0000058
S1130070FCC00000FAC00000F8C00000F6C0000098
S11300800C946F09F2C00000F0C00000EEC0000044
S11300900C9465130C946414E8C00000E6C00000DE
S11300A0E4C00000E2C000000C94460ADEC0000078
S11300B0DCC00000DAC00000D8C000000C941D0BA6
S11300C0D4C00000D2C00000D0C000000C94A5131E
S11300D00C94A314CAC000000C94E5130C94E2140D
S11300E0C4C000000000090A02080B0C0D07060337
S11300F004010000000000000000000000000000F7
S113010000000000000000000000000000000000EB
S113011011100F00000000000000000000000000AB
S11301200000000000000000000001021020200870
S1130130081020401020408002010201080402013E
S113014001020408102040808040201008040201AD
S11301508004020180402010080402010804020106
S1130160010204081020408001020408102040808D
S113017005050505070508080808020202020A0A1F
S1130180080804040404010101010101010103033D
S1130190030303030303040707070C0C0C0C0C0CE8
S11301A00C0C0202020206060606060606060B0BE5
S11301B00B0B0B0B0B0B0000200023002600290067
S11301C02C002F0032000001000003010601090188
S11301D000002200250028002B002E0031003400EE
S11301E002010000050108010B01000021002400A8
S11301F027002A002D003000330001010000040113
S113020007010A018F04E815940411241FBECFEFDF
S1130210D1E2DEBFCDBF00E00CBF12E0A0E0B2E04F
S1130220E2E0F6E300E00BBF02C007900D92A638AF
S1130230B107D9F72CE0A6E8B2E001C01D92AC3BAF
S1130240B207E1F712E0C8E0D2E000E006C022976E
S11302500109FE010BBF0E94CF1AC430D10780E010
S11302600807A9F7E8D20C94F01ACACE8F929F928D
S1130270AF92BF92CF92DF92EF92FF926C010E94F5
S11302800D184B015C01EE24D7FCE094FE2C0E9477
S11302900D18AB01BC01481959096A097B094C15B1
S11302A05D056E057F0598F3FF90EF90DF90CF908A
S11302B0BF90AF909F908F90089581309105F1F495
S11302C06F3F7F4F19F540911202509113026091D4
S11302D014027091150284E293E00E946B0F409126
S11302E00E0250910F02609110027091110288E188
S11302F093E00E946B0F89E892E080C5892B31F46A
S11303006F3F7F4F19F489E892E08FC50895CF932A
S1130310DF93CDB7DEB7C257D1400FB6F894DEBF36
S11303200FBECDBF6BE172E081E79AE00E94131724
S1130330CE0187589F4FC259DE4F99838883CE568A
S1130340D140FE01E759FE4FC059DE4FF983E883DF
S1130350C057D1400F2EF1E44F2EF3E45F2EFBE49F
S11303606F2EF02DC259DE4F7880CE56D140C15940
S1130370DE4F3880CF56D140C059DE4F2880C05759
S1130380D140CE58DE4FF883C257D14012C08FE41B
S11303909AE00E94AC12182F40E150E0682F81E7E8
S11303A09AE00E94B017612F89E892E046D588232D
S11303B039F08FE49AE00E946E12181619063CF385
S11303C0E5E0F3E0C080D1801C141D040CF0A9C04A
S11303D0E12CF12C00E010E00F2EF3E08F2E912C95
S11303E0F02DB70189E892E067D58E3709F091C006
S11303F0A701BE016F507F4F89E892E097D5272D62
S1130400332DAC01BE016F507F4F87E093E00E9413
S1130410B2105C01181619060CF075C0CF57DF4FE7
S11304208881C158D04090E0C09781309105B9F0DF
S11304301CF4892B41F04AC082309105E1F0039706
S113044009F044C025C0C759DE4F488259826A82E8
S1130450C956D140F1E0F0938702A40139C0C759CD
S1130460DE4F488259826A82C956D14081E0809326
S11304708602A4012DC0C759DE4F488259826A8280
S1130480C956D1401092860210928702A40120C05E
S1130490C759DE4F488259826A82C956D140CE5725
S11304A0DF4F8881C258D0408C3441F468E272E056
S11304B081E79AE00E941317A4010AC06DE272E07A
S11304C081E79AE00E941317A40102C040E050E0C3
S11304D000E010E09E012F5F3F4F622DCE58DE4FAB
S11304E07881C257D14087E093E00E941C10AC0190
S11304F0BE016F5F7F4F8FE49AE00E94AF16EA0C53
S1130500FB1C870106C01E141F041CF48701015044
S113051011099FEFE91AF90AEC14FD040CF461CFF8
S113052002C000E010E0B80189E892E068D588ECE8
S113053090E00E94F00E3DCFCF93DF93CDB7DEB7AE
S1130540CA57D1090FB6F894DEBF0FBECDBF63E31F
S113055072E081E79AE00E9413170F2EF6E1AF2EA6
S1130560F2E0BF2EF02D0F2EF4E39F2EF02D0F2E70
S1130570F0E3EF2EF3E0FF2EF02D0F2EF2E3CF2E5B
S1130580F3E0DF2EF02D0F2EF0E36F2EF02D772405
S113059073940F2EF1E38F2EF02D80918702882320
S11305A009F482C0F50180810E948D18EA969FAEFD
S11305B0EA978A3EF1E09F07BCF520918802211159
S11305C033C0F701808191818530910528F17092C3
S11305D08802EB968FAEEB9700E010E09E012F5F50
S11305E03F4F42E050E0BE0167587F4F87E093E001
S11305F00E941C10AC01BE016F5F7F4F8FE49AE034
S11306000E94AF1660E472E081E79AE00E9413173B
S1130610F7011182108248C00196F701918380830B
S1130620F6011182108240C0843F9140BCF1809158
S11306308802882399F1F6018081918185309105A2
S113064028F110928802EB966FAEEB9700E010E071
S11306509E012F5F3F4F42E050E0BE0167587F4F3D
S113066087E093E00E941C10AC01BE016F5F7F4FD6
S11306708FE49AE00E94AF1663E472E081E79AE0A7
S11306800E941317F601118210820EC00196F60122
S113069091838083F7011182108206C0F7011182D1
S11306A01082F6011182108288EC90E00E94F00E14
S11306B074CF8F929F92AF92BF92CF92DF92EF92BC
S11306C0FF92CF93DF934B015C0169017A01809122
S11306D08602882309F44CC080918702882309F498
S11306E047C080918802882309F442C020E030E0AA
S11306F040E85FE3C501B4010E9407121816BCF478
S113070020E030E040E752E4C501B4010E94E91062
S113071018166CF0CCE0D2E061E088810E94771971
S113072084EF91E0A3DD60E088810E94771920E0E6
S113073030E040E85FE3C701B6010E9407121816D3
S1130740BCF420E030E040E752E4C701B6010E9467
S1130750E91018166CF0CAE0D2E061E088810E94CA
S1130760771984EF91E082DD60E088810E94771937
S1130770DF91CF91FF90EF90DF90CF90BF90AF903B
S11307809F908F90089567E472E081E79AE00E9459
S1130790131780918702882309F448C08091880246
S11307A0882309F443C084E293E00E94990FAB01CB
S11307B0BC01409314035093150360931603709384
S11307C0170321E030E084E293E00E94BB0F6093C2
S11307D00C0370930D0380930E0390930F0388E131
S11307E093E00E94990FAB01BC0140931003509316
S11307F01103609312037093130321E030E088E146
S113080093E00E94BB0F9B01AC01609308037093BB
S1130810090380930A0390930B0360910C03709176
S11308200D0380910E0390910F0343DF88EC90E059
S11308300E94F00EAECFAF92BF92CF92DF92EF92B2
S1130840FF920F93CF93DF9300D000D0CDB7DEB7E4
S11308500E942B1840E855E260E070E08FE49AE0D3
S11308600E94651540E855E260E070E081E79AE097
S11308700E94651565E572E081E79AE00E9413170E
S113088061E087E00E94351961E088E00E94351933
S1130890A12CB12CC12CD12C0F2EF5E0EF2EF12C74
S11308A0F02DEC0EFD1E05E020E030E040E051E0CC
S11308B06BE572E083EC93E0E2D70F2EF3E0EF2ECA
S11308C0F12CF02DEC0EFD1E20E030E040E051E074
S11308D062E672E08CE992E0D2D7EE24E394F12C44
S11308E0EC0EFD1E20E030E040E052E067E672E0EE
S11308F087E891E0C4D70E94490D80E090E02696F5
S11309000FB6F894DEBF0FBECDBFDF91CF910F912C
S1130910FF90EF90DF90CF90BF90AF9008956FEF6E
S11309207FEF81E090E0C9CC6FEF7FEF80E090E053
S1130930C4CCCF93DF93EC010E94720D80913403F9
S113094090913503892B31F487E393E09093350339
S11309508093340340911209509113099E01240F8E
S1130960351F2B3D85E0380770F44217530770F4A8
S1130970C0913403D0913503C40FD51F30931309AC
S11309802093120905C0C0E0D0E002C0C0E0D0E06E
S11309900E94360E8C2F9D2FDF91CF9108950895DC
S11309A0FC010396928381832FEF3FEF34832383EB
S11309B0968385839087878310820895FC0111862E
S11309C010860895CF93DF939C01FB01DC011196FF
S11309D0CD91DC911297D383C2838C819D819583C1
S11309E084838C819D81DC0113967C936E93129792
S11309F07D836C8331872087F90180818F5F8083B9
S1130A00DF91CF910895CF93DF93EB014881598112
S1130A104F3F2FEF520721F4FC01A781B0850DC091
S1130A20DC01139601C0DF011296ED91FC9113973E
S1130A302081318142175307B0F71296ED91FC9152
S1130A401397FB83EA83D583C483BD83AC83139656
S1130A50DC93CE93129799878887FC0120812F5FBE
S1130A602083DF91CF910895CF93DF93FC01A0857C
S1130A70B185C281D381848195819D838C83C48116
S1130A80D581828193819B838A831196CD91DC9158
S1130A901297CE17DF0731F48C819D8112969C93B7
S1130AA08E931197118610868C9181508C93DF91CF
S1130AB0CF91089531E1FC013083319722E2208304
S1130AC0FC013297A3E3A083FC0133976083FC010C
S1130AD034977083FC0135971082FC01369710829D
S1130AE0FC01379760E86083FC0138971082FC01B1
S1130AF039971082FC013A971082FC013B9762E01F
S1130B006083FC013C9763E06083FC013D9764E0F3
S1130B106083FC013E9765E06083FC013F9766E0DB
S1130B206083FC01709767E06083FC01719768E063
S1130B306083FC01729769E06083FC01739760E154
S1130B406083FC0174973083FC01759732E1308334
S1130B50FC01769733E13083FC01779734E13083ED
S1130B60FC01789735E13083FC01799736E13083D5
S1130B70FC017A9737E13083FC017B9738E13083BD
S1130B80FC017C9739E13083FC017D9730E23083AE
S1130B90FC017E9731E23083FC017F972083FC01C6
S1130BA0B09723E22083FC01B1974083FC01B29704
S1130BB05083FC01B39726E22083FC01B49727E21B
S1130BC02083FC01B59728E22083FC01B69729E233
S1130BD02083FC01B79720E32083FC01B89721E32D
S1130BE020839C0129523109822F932F089582E09A
S1130BF08093B0001092B2008AEF8093B300E0E7D4
S1130C00F0E080818260808383E08093B100A091D2
S1130C10B709B091B809CD91CDBFDD91DEBFFF9189
S1130C20EF91DF91CF91BF91AF919F918F917F9180
S1130C306F915F914F913F912F911F910F91FF9071
S1130C40EF90DF90CF90BF90AF909F908F907F9068
S1130C506F905F904F903F902F901F900F900CBE1D
S1130C600F900BBE0F900FBE0F90089581E0089572
S1130C700F920FB6F8940F920CB60F920BB60F9218
S1130C801F9211242F923F924F925F926F927F9204
S1130C908F929F92AF92BF92CF92DF92EF92FF9288
S1130CA00F931F932F933F934F935F936F937F9370
S1130CB08F939F93AF93BF93CF93DF93EF93FF9360
S1130CC0A091B709B091B8090DB60D920EB60D9268
S1130CD00E940D0FA091B709B091B809CD91CDBF75
S1130CE0DD91DEBFFF91EF91DF91CF91BF91AF9185
S1130CF09F918F917F916F915F914F913F912F9130
S1130D001F910F91FF90EF90DF90CF90BF90AF9025
S1130D109F908F907F906F905F904F903F902F9017
S1130D201F900F900CBE0F900BBE0F900FBE0F9034
S1130D3008950F920FB6F8940F920CB60F920BB65B
S1130D400F921F9211242F923F924F925F926F92B3
S1130D507F928F929F92AF92BF92CF92DF92EF9247
S1130D60FF920F931F932F933F934F935F936F9330
S1130D707F938F939F93AF93BF93CF93DF93EF931F
S1130D80FF93A091B709B091B8090DB60D920EB6B4
S1130D900D92AED681110E940D0FA091B709B091AA
S1130DA0B809CD91CDBFDD91DEBFFF91EF91DF9109
S1130DB0CF91BF91AF919F918F917F916F915F91EF
S1130DC04F913F912F911F910F91FF90EF90DF90E2
S1130DD0CF90BF90AF909F908F907F906F905F90D7
S1130DE04F903F902F901F900F900CBE0F900BBE12
S1130DF00F900FBE0F9008959CDF1895FC01E858E2
S1130E00FF4F11821082FC01E658FF4F11821082BD
S1130E10FC01E458FF4F11821082E82FF92F88E774
S1130E20DF011D928A95E9F70895E82FF92F88E7E5
S1130E30DF011D928A95E9F708950F931F93CF93CD
S1130E40DF93AC01FC01E458FF4F0190F081E02DE9
S1130E50E837F10559F1EC01C658DF4F08811981D3
S1130E60DC01A00FB11F6C930F5F1F4F9801A9E81D
S1130E70B8E80E94C31A0024880F991F001C880F29
S1130E80991F001C892F902D68E7689F9001699F26
S1130E90300D1124021B130B19830883DA01A458A3
S1130EA0BF4F3196ED93FC9381E001C080E0DF9168
S1130EB0CF911F910F9108950F931F93CF93DF93B9
S1130EC0FC01DC01A858BF4FCD91DC918B010C0FC4
S1130ED01D1F9801A9E8B8E80E94C31AAC010024B8
S1130EE0440F551F001C440F551F001C452F502D47
S1130EF028E7249FC001259F900D1124A801481BB9
S1130F00590B4C175D0740F4DF01A658BF4F8D9174
S1130F109C914817590720F4E40FF51F808101C004
S1130F2080E0DF91CF911F910F910895CF92DF92CE
S1130F30EF92FF920F931F93CF93DF93EC018B01FA
S1130F40842F952FFE01E458FF4F4081518184176F
S1130F50950708F044C0FE01E858FF4F0190F08166
S1130F60E02DE80FF91F9F01A9E8B8E80E94C31A11
S1130F700024880F991F001C880F991F001C892FBB
S1130F80902D68E7689F9001699F300D1124CF016F
S1130F90821B930B452B31F140E050E020E030E020
S1130FA00F2EF8E7CF2ED12CF02D7E016CE7E60E44
S1130FB0F11CFE01E80FF91F6081F801E40FF51F31
S1130FC060832F5F3F4F0196B6010E948E1AA901DC
S1130FD0D701ED91FC912E173F0758F305C020E08F
S1130FE030E002C020E030E0822F932FDF91CF91D8
S1130FF01F910F91FF90EF90DF90CF900895BF92D3
S1131000CF92DF92EF92FF920F931F93CF93DF93D0
S11310108C01FC01E858FF4F40815181FB01E40F32
S1131020F51F9F01A9E8B8E80E94C31A7C010024B7
S1131030EE0CFF1C001CEE0CFF1C001CEF2CF02C13
S113104028E72E9DC0012F9D900D11247F01E81AE1
S1131050F90AF801E658FF4F80819181E816F906F4
S113106030F44E155F05F1F420E030E055C0F8018E
S113107020E030E011922F5F3F4F28373105D1F740
S1131080F801E858FF4F11821082F801E658FF4F2B
S113109011821082F801E458FF4F1182108228E770
S11310A030E03AC0F801E458FF4FC080D180E1E05D
S11310B0F0E00F2EF8E7BF2EF02DD801A40FB51FD6
S11310C01C92EA0121969E01A9E8B8E80E94C31A7D
S11310D0AC010024440F551F001C440F551F001C75
S11310E0452F502DB49EC001B59E900D1124AE0124
S11310F0481B590BC6018E1B9F0B9F013196E416AA
S1131100F506D9F6F801E858FF4F51834083F801FA
S1131110E458FF4F91838083822F932FDF91CF91E7
S11311201F910F91FF90EF90DF90CF90BF900895A3
S11311301F920F920FB60F9211240BB60F922F939A
S11311403F934F935F936F937F938F939F93AF934B
S1131150BF93EF93FF938091160988232CF4109288
S11311608500109284001EC020911609332727FDA4
S11311703095245F3F4F8091140990E02817390778
S11311808CF480911609992787FD90950C96FC01A3
S1131190EE0FFF1F8E0F9F1FFC01E75EF64F80814D
S11311A086FD40C0E6E1F9E080818F5F8083208185
S11311B0332727FD3095245F3F4F8091140990E039
S11311C0281739070CF042C0809116098C300CF4B2
S11311D046C03CC080911609992787FD90950C96CE
S11311E0FC01EE0FFF1F8E0F9F1FFC01E75EF64F01
S11311F0808161E08F730E9477195EC080E49CE96E
S1131200909389008093880009C080918400909114
S11312108500049690938900809388008FEF8093D3
S113122016094AC080911609992787FD90950C9656
S1131230FC01EE0FFF1F8E0F9F1FFC01E75EF64FB0
S1131240808160E08F730E947719ACCF8091840015
S113125090918500049680349C4980F2D6CF2091E9
S1131260840030918500E6E1F9E08081992787FDCB
S113127090950C96DC01AA0FBB1F8A0F9B1FDC0103
S1131280A75EB64F11968D919C911297820F931F72
S113129090938900809388008081992787FD909599
S11312A00C96FC01EE0FFF1F8E0F9F1FFC01E75EE3
S11312B0F64F808186FD8ECFFF91EF91BF91AF9164
S11312C09F918F917F916F915F914F913F912F915A
S11312D00F900BBE0F900FBE0F901F9018951F928A
S11312E00F920FB60F9211240BB60F922F933F93C8
S11312F04F935F936F937F938F939F93AF93BF931A
S1131300EF93FF938091170988232CF41092950092
S1131310109294001EC020911709332727FD3095A1
S1131320285E3F4F8091140990E0281739078CF408
S113133080911709992787FD90954896FC01EE0F37
S1131340FF1F8E0F9F1FFC01E75EF64F808186FD15
S113135040C0E7E1F9E080818F5F808320813327FB
S113136027FD3095285E3F4F8091140990E028179F
S113137039070CF042C0809117098C300CF446C038
S11313803CC080911709992787FD90954896FC01E8
S1131390EE0FFF1F8E0F9F1FFC01E75EF64F80814B
S11313A061E08F730E9477195EC080E49CE990939A
S11313B099008093980009C08091940090919500C1
S11313C0049690939900809398008FEF8093170967
S11313D04AC080911709992787FD90954896FC018A
S11313E0EE0FFF1F8E0F9F1FFC01E75EF64F8081FB
S11313F060E08F730E947719ACCF80919400909134
S11314009500049680349C4980F2D6CF20919400B4
S113141030919500E7E1F9E08081992787FD909567
S11314204896DC01AA0FBB1F8A0F9B1FDC01A75E35
S1131430B64F11968D919C911297820F931F9093A2
S11314409900809398008081992787FD909548960C
S1131450FC01EE0FFF1F8E0F9F1FFC01E75EF64F8E
S1131460808186FD8ECFFF91EF91BF91AF919F91C7
S11314708F917F916F915F914F913F912F910F9039
S11314800BBE0F900FBE0F901F9018951F920F92D6
S11314900FB60F9211240BB60F922F933F934F93D5
S11314A05F936F937F938F939F93AF93BF93EF93C8
S11314B0FF938091180988232CF41092A5001092B0
S11314C0A4001EC020911809332727FD30952C5DF8
S11314D03F4F8091140990E0281739078CF48091CC
S11314E01809992787FD90958496FC01EE0FFF1F3C
S11314F08E0F9F1FFC01E75EF64F808186FD40C082
S1131500E8E1F9E080818F5F80832081332727FD24
S113151030952C5D3F4F8091140990E028173907CE
S11315200CF042C0809118098C300CF446C03CC0C9
S113153080911809992787FD90958496FC01EE0FF8
S1131540FF1F8E0F9F1FFC01E75EF64F808161E055
S11315508F730E9477195EC080E49CE99093A90080
S11315608093A80009C08091A4009091A5000496DE
S11315709093A9008093A8008FEF809318094AC024
S113158080911809992787FD90958496FC01EE0FA8
S1131590FF1F8E0F9F1FFC01E75EF64F808160E006
S11315A08F730E947719ACCF8091A4009091A5000D
S11315B0049680349C4980F2D6CF2091A4003091C7
S11315C0A500E8E1F9E08081992787FD909584964C
S11315D0DC01AA0FBB1F8A0F9B1FDC01A75EB64F5D
S11315E011968D919C911297820F931F9093A9004D
S11315F08093A8008081992787FD90958496FC01AB
S1131600EE0FFF1F8E0F9F1FFC01E75EF64F8081D8
S113161086FD8ECFFF91EF91BF91AF919F918F91F6
S11316207F916F915F914F913F912F910F900BBEDE
S11316300F900FBE0F901F9018951F920F920FB628
S11316400F9211240BB60F922F933F934F935F93F6
S11316506F937F938F939F93AF93BF93EF93FF9376
S11316608091150988232CF41092250110922401ED
S11316701BC020911509332727FD3095809114094B
S113168090E02817390784F480911509992787FD7C
S11316909095FC01EE0FFF1F8E0F9F1FFC01E75E6C
S11316A0F64F808186FD3DC0E5E1F9E080818F5FE2
S11316B080832081332727FD30958091140990E0A1
S11316C0281739070CF040C0809115098C300CF4B0
S11316D044C03AC080911509992787FD9095FC0173
S11316E0EE0FFF1F8E0F9F1FFC01E75EF64F8081F8
S11316F061E08F730E9477195BC080E49CE990934A
S113170029018093280109C0809124019091250129
S1131710049690932901809328018FEF80931509F3
S113172047C080911509992787FD9095FC01EE0F1C
S1131730FF1F8E0F9F1FFC01E75EF64F808160E064
S11317408F730E947719B0CF809124019091250165
S1131750049680349C4988F2D7CF2091240130919B
S11317602501E5E1F9E08081992787FD9095DC0169
S1131770AA0FBB1F8A0F9B1FDC01A75EB64F1196F1
S11317808D919C911297820F931F909329018093BE
S113179028018081992787FD9095FC01EE0FFF1F9A
S11317A08E0F9F1FFC01E75EF64F808186FD92CF6E
S11317B0FF91EF91BF91AF919F918F917F916F9125
S11317C05F914F913F912F910F900BBE0F900FBEE1
S11317D00F901F901895E091B509F091B60980819A
S11317E0811107C08FEF9FEF909319028093180225
S11317F00895E091B509F091B6090580F681E02DD0
S11318000680F781E02D8281938190931902809361
S113181018020895CF93DF93EC01E091B709F0919A
S1131820B809938382838091AF099091B009C81756
S1131830D90760F46091B7097091B8098091B30930
S11318409091B4096E5F7F4FDED816C06091B709DE
S11318507091B8098091B5099091B6096E5F7F4F78
S1131860D2D88091180290911902C817D90720F490
S1131870D0931902C0931802DF91CF9108954F922B
S11318805F926F927F928F929F92AF92BF92CF920C
S1131890DF92EF92FF920F931F93CF93DF934C014C
S11318A05B012A01390181E290E043D8EC01009701
S11318B009F4DDC0C114D10409F0C3C0C20139D890
S11318C0988F8F8B892B09F0BEC0CE0168D8CFC00A
S11318D0CF013191DA013D93AD01DC018C91882374
S11318E011F02150A9F718A2102F043008F013E0CA
S11318F01E8B5E01B2E0AB0EB11CC5015FD8CE01F8
S11319000C965CD8D987C88784E090E0811B910944
S11319109D878C87DB8BCA8BA301B401C601CAD80F
S113192099838883E114F10419F0F701D183C0830A
S11319300FB6F8940F928091B1098F5F8093B1092B
S11319408091B7099091B809892B09F03CC0D093D4
S1131950B809C093B7098091B109813009F042C038
S1131960E12CF12CC701880F991F880F991F880F4C
S1131970991F8E0D9F1D8654964F12D8FFEFEF1AB4
S1131980FF0A84E0E816F10469F78EED99E008D8BF
S113199087EE99E005D880EF99E002D889EF99E0C5
S11319A00E94D00482E09AE00E94D0048EED99E077
S11319B09093B6098093B50987EE99E09093B409A2
S11319C08093B3090FC08091AD0981110BC0E091E0
S11319D0B709F091B8098689081720F0D093B8099F
S11319E0C093B7098091B9098F5F8093B9098E8933
S11319F09091AE09981710F48093AE0990E09C0181
S1131A00220F331F220F331F220F331F820F931F06
S1131A10B5018654964F0E94E2040F900FBE809148
S1131A20AD09882351F0E091B709F091B80986898E
S1131A30801728F41DD981E01BC081E019C081E022
S1131A4017C0D88ECF8AA1E04A1A5108CF88D88C03
S1131A50C40CD51CF5018081898F8081882309F409
S1131A6042CFAE01465E5F4F319627E031CF8FEF14
S1131A70DF91CF911F910F91FF90EF90DF90CF9066
S1131A80BF90AF909F908F907F906F905F904F909A
S1131A900895AF92BF92CF92DF92EF92FF920F938D
S1131AA0A12CB12CC12CD12CE12CF12C00E020E094
S1131AB030E045E550E060E772E086EB9EE0DFDE73
S1131AC0813041F4F8948093AD091092B0091092DA
S1131AD0AF098DD80F91FF90EF90DF90CF90BF901A
S1131AE0AF9008958091A9098F5F8093A909089503
S1131AF0CF92DF92EF92FF920F931F93CF93DF93D6
S1131B008091A909811199C08091AF099091B00980
S1131B1001969093B0098093AF09E090AF09F090DB
S1131B20B009E114F104B1F48091B5099091B609BA
S1131B302091B3093091B4093093B6092093B509C3
S1131B409093B4098093B3098091AA098F5F80931D
S1131B50AA0941DE8091180290911902E816F9064B
S1131B6020F4D12C54C0DC2C03C0D12CCC24C3943D
S1131B70E091B509F091B6098081811107C08FEF1A
S1131B809FEF909319028093180241C0E091B50928
S1131B90F091B6090580F681E02DC681D7812A81AE
S1131BA03B81E216F30628F43093190220931802BD
S1131BB02EC08E010E5F1F4FC8010E9434058C8910
S1131BC09D89892B21F0CE010C960E9434052E8923
S1131BD08091AE09821710F42093AE0930E0C90158
S1131BE0880F991F880F991F880F991F820F931FC1
S1131BF0B8018654964F0E94E204E091B709F0912F
S1131C00B8099E898689981708F0ADCFB1CFE091C5
S1131C10B709F091B809868990E0FC01EE0FFF1F27
S1131C20EE0FFF1FEE0FFF1F8E0F9F1FFC01E654E8
S1131C30F64F8081823040F409C08091AC098F5FF7
S1131C408093AC09D12C02C0DD24D3948091AB09DC
S1131C50882311F0DD24D3948D2DDF91CF911F9132
S1131C600F91FF90EF90DF90CF900895DF92EF9265
S1131C70FF920F931F93CF93DF930FB6F8940F92B5
S1131C808091A90981508093A9098091A9098111A2
S1131C9060C08091B109811132C05EC0E091F50944
S1131CA0F091F609C681D781CE010C960E943405C5
S1131CB08E010E5F1F4FC8010E9434058E899091DA
S1131CC0AE09981710F48093AE0990E09C01220F9E
S1131CD0331F220F331F220F331F820F931FB801AC
S1131CE08654964F0E94E204E091B709F091B80936
S1131CF09E898689981758F0D092AB0908C00F2E98
S1131D00F0EFEF2EF9E0FF2EF02DDD24D394F70150
S1131D1080818111C3CF8091AC09882391F0809197
S1131D20AC09882371F0C1E0E3DE8111C093AB09F3
S1131D308091AC0981508093AC098091AC098111E8
S1131D40F3CF8091AB09813031F40E94380681E0F1
S1131D5003C080E001C080E00F900FBEDF91CF91FF
S1131D601F910F91FF90EF90DF900895C9EFD9E094
S1131D700F2EFAEBEF2EF9E0FF2EF02D26C0B2DE87
S1131D80188174DF112309F10FB6F8940F92E091D2
S1131D90FE09F091FF0906811781C80102960E948D
S1131DA034058091B10981508093B1098091B209C1
S1131DB081508093B2090F900FBEF8018789908DEE
S1131DC00E94CF04C8010E94CF048091B2098111FE
S1131DD0D6CFF70180818230C0F30E943806F5CF58
S1131DE0CF93DF93EC01009799F07CDE8091AF09EB
S1131DF09091B009C80FD91F8091B7099091B80983
S1131E0002960E943405CE0105DD30DF811102C047
S1131E100E943806DF91CF9108958091A909882303
S1131E2021F081E08093AB0908951092AB09809171
S1131E30AE0990E0FC01EE0FFF1FEE0FFF1FEE0F47
S1131E40FF1F8E0F9F1FFC01E654F64F8081811106
S1131E5017C08091AE0981508093AE098091AE097C
S1131E6090E0FC01EE0FFF1FEE0FFF1FEE0FFF1FB0
S1131E708E0F9F1FFC01E654F64F8081882349F39F
S1131E80E091AE09F0E0CF01880F991F880F991FE8
S1131E90880F991FE80FF91FE654F64FA181B2810C
S1131EA012960D90BC91A02DB283A183CF0103960D
S1131EB0A817B90731F412968D919C9113979283C8
S1131EC081830180F281E02D868197819093B80906
S1131ED08093B7090895EF92FF920F931F93CF93C6
S1131EE0DF93EC01062FE72E142FF52E61E0802FEF
S1131EF00E94351960E0812F0E9435190883E98218
S1131F001A83FB8240E050E068E971E44C835D830E
S1131F106E837F834CE953E56CE872E44887598704
S1131F206A877B87DF91CF911F910F91FF90EF908C
S1131F300895CF93DF93EC0160E088810E947719C4
S1131F4082E090E00E94211861E088810E94771964
S1131F508AE090E00E94211860E088810E9477194D
S1131F6020E432E44FE050E061E08A810E94A91944
S1131F70DF91CF910895CF93DF93EC01232B71F080
S1131F80CB01BA0194D12C813D814E815F8125D151
S1131F9020E030E040E05FE33ED20DC0CB01BA0167
S1131FA086D1288539854A855B8517D120E030E0C4
S1131FB040E05FE330D2DF91CF9108950F931F93F8
S1131FC0CF93DF93EB018881F9018083423051057F
S1131FD054F1FB013196460F571FA1E0B0E00DE725
S1131FE010E2CF016081633141F018F4613189F46A
S1131FF004C0762F7D57723060F4B9016A0F7B1FDD
S1132000EB010883EC0188818127EB018983129617
S113201005C0E901CA0FDB1F688311963196E417E6
S1132020F507F9F602C0A1E0B0E08A2F9B2FDF91FB
S1132030CF911F910F910895AF92BF92CF92DF92EB
S1132040EF92FF920F931F93CF93DF93CDB7DEB739
S1132050C456D1090FB6F894DEBF0FBECDBF6C01D4
S11320607A0159018EE789831A82842F8B5F8B83CF
S113207081E08C831D821E830F8388879E01275FE6
S11320803F4F5F2D822F932F0E94E71AC7010896B6
S1132090843091057CF0FE01349669E070E06C0FA9
S11320A07D1F6E0D7F1D20E03191230FE617F7078A
S11320B0D9F701C020E0E1E0F0E0EC0FFD1FE80FEC
S11320C0F91F20952083A701475F5F4F9501BE014B
S11320D06F5F7F4FC60172DFCC59DF4F0FB6F894A4
S11320E0DEBF0FBECDBFDF91CF911F910F91FF9047
S11320F0EF90DF90CF90BF90AF9008951F93CF9350
S1132100DF93FB018081F90180834230510514F192
S1132110FB0132966F5F7F4F460F571F80E0A1E0AF
S1132120B0E060E010E271E081110EC0EF01219790
S113213098819D3719F490819127872FE901CA0F5F
S1132140DB1F9883119601C0862F3196E417F5079B
S113215059F702C0A1E0B0E08A2F9B2FDF91CF9105
S11321601F910895CF93DF93E901FB0120812E375E
S113217001F54A30510504F19E01C0DF4A8150E067
S1132180049784179507DCF04C5F5F4F443051058A
S1132190CCF0FE01339683E090E020E03191230FF0
S11321A0019684179507D4F32F3F71F040E050E077
S11321B00BC040E050E008C040E050E005C040E003
S11321C050E002C040E050E0842F952FDF91CF9182
S11321D00895A8D008F481E008950CD0DEC0D6D0CC
S11321E040F0CDD030F021F45F3F19F0BFC0511161
S11321F008C1C2C0E3D098F39923C9F35523B1F3BE
S1132200951B550BBB27AA2762177307840738F061
S11322109F5F5F4F220F331F441FAA1FA9F333D0C0
S11322200E2E3AF0E0E830D091505040E695001C74
S1132230CAF729D0FE2F27D0660F771F881FBB1F30
S1132240261737074807AB07B0E809F0BB0B802D0A
S1132250BF01FF2793585F4F2AF09E3F510568F056
S113226085C0CFC05F3FECF3983EDCF3869577954D
S11322706795B795F7959F5FC9F7880F911D969558
S1132280879597F90895E1E0660F771F881FBB1FB4
S1132290621773078407BA0720F0621B730B840B61
S11322A0BA0BEE1F88F7E0950895E89409C097FBF0
S11322B03EF490958095709561957F4F8F4F9F4F19
S11322C09923A9F0F92F96E9BB279395F69587955D
S11322D077956795B795F111F8CFFAF4BB0F11F420
S11322E060FF1BC06F5F7F4F8F4F9F4F16C08823C7
S11322F011F096E911C0772321F09EE8872F762FFD
S113230005C0662371F096E8862F70E060E02AF03D
S11323109A95660F771F881FDAF7880F9695879529
S113232097F90895990F0008550FAA0BE0E8FEEFFE
S113233016161706E807F907C0F012161306E40785
S1132340F50798F0621B730B840B950B39F40A267E
S113235061F0232B242B252B21F408950A2609F45C
S1132360A140A6958FEF811D811D089597F99F6760
S113237080E870E060E008959FEF80EC0895002409
S11323800A941616170618060906089500240A94D6
S113239012161306140605060895092E0394000C5C
S11323A011F4882352F0BB0F40F4BF2B11F460FFEB
S11323B004C06F5F7F4F8F4F9F4F089557FD905814
S11323C0440F551F59F05F3F71F04795880F97FBF5
S11323D0991F61F09F3F79F08795089512161306AF
S11323E01406551FF2CF4695F1DF08C016161706DE
S11323F01806991FF1CF8695710561050894089513
S1132400E894BB2766277727CB0197F908958ADFDD
S113241008F48FEF08950BD0C0CFB1DF28F0B6DFFA
S113242018F0952309F0A2CFA7CF1124EACFC6DF75
S1132430A0F3959FD1F3950F50E0551F629FF001D3
S1132440729FBB27F00DB11D639FAA27F00DB11D2C
S1132450AA1F649F6627B00DA11D661F829F2227B5
S1132460B00DA11D621F739FB00DA11D621F839F3C
S1132470A00D611D221F749F3327A00D611D231F12
S1132480849F600D211D822F762F6A2F11249F5760
S113249050408AF0E1F088234AF0EE0FFF1FBB1F83
S11324A0661F771F881F91505040A9F79E3F510522
S11324B070F05CCFA6CF5F3FECF3983EDCF38695DB
S11324C077956795B795F795E7959F5FC1F7FE2BCD
S11324D0880F911D9695879597F90895FC01848539
S11324E09585FC01E05CFF4F20813181FC01EE5BAE
S11324F0FF4F80819181205C3F4F281B390B2F7344
S11325003078332334F421503109206C3F6F2F5F2E
S11325103F4F822F932F0895FC0184859585FC01FC
S1132520E05CFF4F40815181FC01EE5BFF4F208155
S113253031814217530759F0FC01EE5BFF4F2081B4
S11325403181FC01E20FF31F208130E002C02FEF44
S11325503FEF822F932F0895FC0184859585FC011C
S1132560E05CFF4F40815181FC01EE5BFF4F208115
S113257031814217530791F0FC01EE5BFF4F20813C
S11325803181DC01A20FB31F2C91808191810196CE
S11325908F7399279183808330E002C02FEF3FEF40
S11325A0822F932F0895FC0181A1882329F0A48907
S11325B0B5898C9186FFFBCF11A20895DC011E968C
S11325C08D919C911F97FC01E05CFF4F40815181EC
S11325D04F5F5F4F4F735527FC01EE5BFF4F208128
S11325E0318124173507D9F3FC01E05CFF4F2081CA
S11325F03181FC01E20FF31F60831E96ED91FC9183
S11326001F97E05CFF4F518340835696ED91FC91F8
S11326105797408121E030E0C9015F960C905F97A5
S113262002C0880F991F0A94E2F7842B808381E00B
S113263091968C9391975496ED91FC915597808146
S11326408064808381E090E008951F920F920FB61A
S11326500F9211240BB60F922F933F934F938F93A6
S11326609F93AF93BF93EF93FF938091C00082FD3C
S11326701AC04091C6008091AF0C9091B00C0196A5
S11326808F7399272091B10C3091B20C8217930764
S113269061F0EFEAFCE0A081B181A159B34F4C9302
S11326A09183808302C08091C600FF91EF91BF9116
S11326B0AF919F918F914F913F912F910F900BBEAE
S11326C00F900FBE0F901F9018951F920F920FB688
S11326D00F9211240BB60F922F933F934F938F9326
S11326E09F93AF93BF93EF93FF938091C80082FDB4
S11326F01AC04091CE008091270C9091280C01962D
S11327008F7399272091290C30912A0C82179307F3
S113271061F0E7E2FCE0A081B181A951B44F4C9390
S11327209183808302C08091CE00FF91EF91BF918D
S1132730AF919F918F914F913F912F910F900BBE2D
S11327400F900FBE0F901F9018951F920F920FB607
S11327500F9211240BB60F922F933F934F938F93A5
S11327609F93AF93BF93EF93FF938091D00082FD2B
S11327701AC04091D60080919F0B9091A00B0196B6
S11327808F7399272091A10B3091A20B8217930785
S113279061F0EFE9FBE0A081B181A15AB44F4C9301
S11327A09183808302C08091D600FF91EF91BF9105
S11327B0AF919F918F914F913F912F910F900BBEAD
S11327C00F900FBE0F901F9018951F920F920FB687
S11327D00F9211240BB60F922F933F934F938F9325
S11327E09F93AF93BF93EF93FF938091300182FD4A
S11327F01AC0409136018091170B9091180B0196E5
S11328008F7399272091190B30911A0B8217930714
S113281061F0E7E1FBE0A081B181A952B54F4C938F
S11328209183808302C080913601FF91EF91BF9123
S1132830AF919F918F914F913F912F910F900BBE2C
S11328400F900FBE0F901F9018951F920F920FB606
S11328500F9211240BB60F922F933F938F939F9354
S1132860AF93BF93EF93FF9320916B0C30916C0C5B
S113287080916D0C90916E0C2817390731F4E1ECBE
S1132880F0E080818F7D808310C0EDE6FCE0A081C4
S1132890B181A55DB34F2C918081918101968F7395
S11328A09927918380832093C600FF91EF91BF9174
S11328B0AF919F918F913F912F910F900BBE0F90ED
S11328C00FBE0F901F9018951F920F920FB60F9284
S11328D011240BB60F922F933F938F939F93AF9333
S11328E0BF93EF93FF932091E30B3091E40B80911E
S11328F0E50B9091E60B2817390731F4E9ECF0E089
S113290080818F7D808310C0E5EEFBE0A081B181E2
S1132910AD55B44F2C918081918101968F73992785
S1132920918380832093CE00FF91EF91BF91AF916B
S11329309F918F913F912F910F900BBE0F900FBEDF
S11329400F901F9018951F920F920FB60F9211249B
S11329500BB60F922F933F938F939F93AF93BF9395
S1132960EF93FF9320915B0B30915C0B80915D0B97
S113297090915E0B2817390731F4E1EDF0E0808186
S11329808F7D808310C0EDE5FBE0A081B181A55E61
S1132990B44F2C918081918101968F7399279183F3
S11329A080832093D600FF91EF91BF91AF919F91C7
S11329B08F913F912F910F900BBE0F900FBE0F90F0
S11329C01F9018951F920F920FB60F9211240BB6F9
S11329D00F922F933F938F939F93AF93BF93EF9354
S11329E0FF932091D30A3091D40A8091D50A909113
S11329F0D60A2817390731F4E1E3F1E080818F7DAD
S1132A00808310C0E5EDFAE0A081B181AD56B54FE9
S1132A102C918081918101968F7399279183808372
S1132A2020933601FF91EF91BF91AF919F918F91C8
S1132A303F912F910F900BBE0F900FBE0F901F90E0
S1132A4018958F929F92AF92BF92CF92DF92EF929E
S1132A50FF920F931F93CF93DF93CDB7DEB7FC01A3
S1132A601382128288EE93E0A0E0B0E08483958321
S1132A70A683B78389E792E091838083758764870F
S1132A8057874687318B208B138B028BF58AE48A18
S1132A90D78AC68AB18EA08E938E828E8889848FBF
S1132AA08989858F8A89868F8B89878F8C8980A372
S1132AB0DF91CF911F910F91FF90EF90DF90CF9016
S1132AC0BF90AF909F908F900895CF92DF92EF9236
S1132AD0FF92CF93DF93EC016A017B01411581EEF4
S1132AE058076105710501F1EC89FD8981E090E0E9
S1132AF008A002C0880F991F0A94E2F7808360E05F
S1132B0079E08DE390E0A70196011BD5DA01C901B4
S1132B100197A109B109B695A795979587959C0149
S1132B20211580E13807A0F0EC89FD89108260E866
S1132B3074E88EE190E0A701960103D5DA01C9019A
S1132B400197A109B109B695A795979587959C0119
S1132B50E889F9893083EA89FB89208319A2EE89FF
S1132B60FF89408181E090E09C010C8C02C0220F1F
S1132B70331F0A94E2F7242B2083EE89FF894081D6
S1132B809C010D8C02C0220F331F0A94E2F7242B00
S1132B902083EE89FF8940819C010E8C02C0220FA4
S1132BA0331F0A94E2F7242B2083EE89FF892081C6
S1132BB00F8C02C0880F991F0A94E2F78095822334
S1132BC08083DF91CF91FF90EF90DF90CF900895B5
S1132BD05F926F927F928F929F92AF92BF92CF92A9
S1132BE0DF92EF92FF920F931F93CF93DF935524BD
S1132BF053945F920F2EF5E06F2EF02D6F920F2EEF
S1132C00F7E07F2EF02D7F92D3E0DF93C4E0CF93E3
S1132C100F2EF6EC8F2E912CF02D0F2EF2ECAF2E02
S1132C20B12CF02D0F2EF1ECCF2ED12CF02D0F2E38
S1132C30F0ECEF2EF12CF02D04EC10E025EC30E05C
S1132C404BE25CE06FE67CE081E79AE0FADE5F92BB
S1132C506F927F92DF93CF930F2EFEEC8F2E912CE9
S1132C60F02D0F2EFAECAF2EB12CF02D0F2EF9EC27
S1132C70CF2ED12CF02D0F2EF8ECEF2EF12CF02DC1
S1132C800CEC10E02DEC30E043EA5BE067EE7BE017
S1132C908FE49AE0D6DE5F926F927F92DF93CF93B8
S1132CA00F2EF6ED8F2E912CF02D0F2EF2EDAF2E70
S1132CB0B12CF02D0F2EF1EDCF2ED12CF02D0F2EA7
S1132CC0F0EDEF2EF12CF02D04ED10E025ED30E0C9
S1132CD04BE15BE06FE57BE08DE29AE0B2DE5F9270
S1132CE06F927F92DF93CF930F2EF6E38F2E99246A
S1132CF09394F02D0F2EF2E3AF2EBB24B394F02D5A
S1132D000F2EF1E3CF2EDD24D394F02D0F2EF0E31C
S1132D10EF2EFF24F394F02D04E311E025E331E0DA
S1132D2043E95AE067ED7AE08BE09AE08ADE8DB7FA
S1132D309EB744960FB6F8949EBF0FBE8DBFDF9129
S1132D40CF911F910F91FF90EF90DF90CF90BF90A4
S1132D50AF909F908F907F906F905F900895CF92E7
S1132D60DF92EF92FF920F931F93CF93DF937C0137
S1132D706B01EA01209791F000E010E0D6016D911B
S1132D806D01D701ED91FC910190F081E02DC70117
S1132D901995080F191F219789F702C000E010E068
S1132DA0802F912FDF91CF911F910F91FF90EF9082
S1132DB0DF90CF9008956115710599F0E62FF72FF4
S1132DC0DF010D900020E9F71197AD014E1B5F0B59
S1132DD0DC01ED91FC910280F381E02D19959C01B9
S1132DE002C020E030E0822F932F0895DC01ED91A2
S1132DF0FC910190F081E02D199508950F931F9394
S1132E00CF93DF93EC016DE0F1DF8C016AE0CE013A
S1132E10EDDF9C01200F311F822F932FDF91CF9183
S1132E201F910F9108950F931F93CF93DF93EC019C
S1132E30C2DF8C01CE01E2DF9C01200F311F822F03
S1132E40932FDF91CF911F910F9108954F925F922D
S1132E506F927F929F92AF92BF92CF92DF92EF9246
S1132E60FF920F931F93CF93DF93CDB7DEB7A19754
S1132E700FB6F894DEBF0FBECDBF5C016A017B01C3
S1132E80922E19A281E0821720F00F2EFAE09F2ED5
S1132E90F02D8E010F5D1F4F492C512C612C712C8C
S1132EA0C701B601A30192014CD38C2D929E8019C7
S1132EB01124015011098A3010F4805D01C0895C2D
S1132EC0D8018C93C22ED32EE42EF52EC114D10436
S1132ED0E104F10429F701151105A9F0E02FF12F00
S1132EE0DF010D900020E9F71197AD014E1B5F0B38
S1132EF0D501ED91FC910280F381E02DB801C5016B
S1132F0019959C0102C020E030E0822F932FA196F6
S1132F100FB6F894DEBF0FBECDBFDF91CF911F91E6
S1132F200F91FF90EF90DF90CF90BF90AF909F9064
S1132F307F906F905F904F9008952115310549F46B
S1132F40DC01ED91FC910190F081E02D642F199545
S1132F5008957CCF9A01462F50E060E070E0EDCFF9
S1132F600F931F93CF93DF93EC01F4DF8C01CE0119
S1132F7045DF9C01200F311F822F932FDF91CF91CA
S1132F801F910F9108951F920F920FB60F92112463
S1132F902F933F938F939F93AF93BF938091B30CE1
S1132FA09091B40CA091B50CB091B60C3091BB0CBF
S1132FB0232F2D5F2D3720F40196A11DB11D05C0CF
S1132FC0232F2A570296A11DB11D2093BB0C809379
S1132FD0B30C9093B40CA093B50CB093B60C809141
S1132FE0B70C9091B80CA091B90CB091BA0C0196A1
S1132FF0A11DB11D8093B70C9093B80CA093B90C8C
S1133000B093BA0CBF91AF919F918F913F912F9143
S11330100F900FBE0F901F9018950F931F938FB7AB
S1133020F8940091B30C1091B40C2091B50C30912C
S1133030B60C8FBF602F712F822F932F1F910F918A
S11330400895019739F0880F991F880F991F0297E7
S11330500197F1F70895789484B5826084BD84B5AE
S1133060816084BD85B5826085BD85B5816085BD7F
S1133070EEE6F0E0808181608083E1E8F0E0108298
S1133080808182608083808181608083E0E8F0E0D9
S1133090808181608083E1EBF0E0808184608083C3
S11330A0E0EBF0E0808181608083E1E9F0E0808101
S11330B082608083808181608083E0E9F0E08081A8
S11330C081608083E1EAF0E0808182608083808196
S11330D081608083E0EAF0E0808181608083E1E2C6
S11330E0F1E0808182608083808181608083E0E27E
S11330F0F1E0808181608083EAE7F0E08081846090
S113310080838081826080838081816080838081EC
S1133110806880831092C1000895863308F0865336
S1133120EBE7F0E09081282F2870977F922B908313
S1133130877020911A0240E4249F90011124282BC7
S113314020937C00EAE7F0E08081806480838081C2
S113315086FDFDCF2091780030917900932F80E097
S1133160AC01422B9A01822F932F0895893009F4E0
S11331704CC088F4843049F138F4823081F1F8F499
S1133180813009F071C027C0873099F1C0F58630CD
S113319009F06AC028C08D3009F44FC030F48B3078
S11331A009F43FC008F043C036C0803109F451C06F
S11331B0813109F454C08F3009F056C044C0E0E8AE
S11331C0F0E080818F7780830895E0E8F0E08081EB
S11331D08F7D8083089584B58F7784BD089584B5E9
S11331E08F7D84BD0895E0EBF0E080818F7780834C
S11331F00895E0EBF0E080818F7D80830895E0E91D
S1133200F0E080818F7780830895E0E9F0E08081A9
S11332108F7D80830895E0E9F0E08081877F80835B
S11332200895E0EAF0E080818F7780830895E0EAF2
S1133230F0E080818F7D80830895E0EAF0E0808172
S1133240877F80830895E0E2F1E080818F77808337
S11332500895E0E2F1E080818F7D80830895E0E2CB
S1133260F1E08081877F80830895CF93DF9390E09E
S1133270FC01E65DFE4F4491FC01E059FE4F849150
S1133280882391F190E0880F991FFC01E651FE4FCD
S113329025913491A22FB32F80539E4FFC01859129
S11332A09491C82FD92F61110BC08FB7F8949C91BA
S11332B0409594239C93E8814E2348838FBF14C088
S11332C0623061F48FB7F8942C91942F90959223E7
S11332D09C93E8814E2B48838FBF06C08FB7F89428
S11332E0EC914E2B4C938FBFDF91CF9108951F9398
S11332F0CF93DF93C62F282F30E0F901EC51FF4F15
S11333008491F901E65DFE4FD491F901E059FE4F35
S113331014911123D1F0811129DF212F30E0F9011B
S1133320EE0FFF1FE053FE4F85919491A82FB92F04
S11333308FB7F894C11105C0EC91D095DE23DC93CE
S113334003C0EC91DE2BDC938FBFDF91CF911F91F3
S113335008954F925F926F927F928F929F92AF9255
S1133360BF92CF92DF92EF92FF920F931F93CF936E
S1133370DF9390E0FC01E65DFE4F1491FC01E059FF
S1133380FE4FC491611102C000E001C0012F0F2E55
S1133390CC24CA94DC2CEC2CFFE0FF2EF02DC222AE
S11333A0D322E422F522D0E0CC0FDD1FCA54DE4F35
S11333B0412C512C3201FE01659174910DC0D30151
S11333C0C2010196A11DB11D4C145D046E047F045D
S11333D009F480C02C013D01E62FF72F8081812361
S11333E0081769F311C0812C912C54018394840C27
S11333F0951CA61CB71C4C145D046E047F0409F4D0
S11334006DC02401350103C0FE0185919491E82F1C
S1133410F92F608161230613E6CFFE018591949113
S1133420E82FF92F80818123081325C04C145D04F3
S11334306E047F0409F456C0812C912C5401FE01C2
S1133440859194910CC0B301A201480D591D6A1DC8
S11334507B1DC416D506E606F70609F447C02FEF10
S1133460821A920AA20AB20AE82FF92F6081612314
S1133470061749F303C0812C912C5401D501C401D2
S1133480880F991FAA1FBB1F880F991FAA1FBB1F54
S11334906C017D01CC0CDD1CEE1CFF1CCC0CDD1C76
S11334A0EE1CFF1C8C0D9D1DAE1DBF1D880E991EAC
S11334B0AA1EBB1E80E1880E911CA11CB11C7501C3
S11334C06401689413F8F694E794D794C794169417
S11334D0D1F70FC0C12CD12C76010BC0C12CD12C3B
S11334E0760107C0C12CD12C760103C0C12CD12C8C
S11334F076016C2D7D2D8E2D9F2DDF91CF911F9107
S11335000F91FF90EF90DF90CF90BF90AF909F907E
S11335108F907F906F905F904F90089597FB072E48
S113352016F4009406D077FD08D03DD007FC05D0F2
S11335303EF4909581959F4F0895709561957F4FC6
S11335400895A1E21A2EAA1BBB1BFD010DC0AA1FE0
S1133550BB1FEE1FFF1FA217B307E407F50720F0F8
S1133560A21BB30BE40BF50B661F771F881F991F73
S11335701A9469F760957095809590959B01AC01BC
S1133580BD01CF010895A29FB001B39FC001A39FC5
S113359001D0B29F700D811D1124911D08950790D3
S11335A0F691E02D1994AA1BBB1B51E107C0AA1F79
S11335B0BB1FA617B70710F0A61BB70B881F991FD0
S11335C05A95A9F780959095BC01CD010895FB010A
S11335D0DC0102C001900D9241505040D8F708958B
S11335E012E0C8E0D2E000E005C022970109FE0124
S11335F00BBFD5DFCA30D10780E00807B1F7F894D4
S1053600FFCFF6
S11336020000BC0C200001000000080007000500B7
S11336120400030002003600FFFF01494E20584215
S11336224545205441534B006C65667400726967CA
S1133632687400494E20464C4558205441534B006F
S11336424F4E004F464600494E20534F4E415220A2
S11336525441534B00535441525400737354617395
S11336626B00466C657800786265655461736B0023
S113367249444C450000000000DE12AF166E12AC45
S1093682128C12D31200A9
S9030000FC
